:020000040800F2
:10000000005000203D590008252F00082B2F000824
:10001000312F0008372F00083D2F00080000000096
:10002000000000000000000000000000432F000856
:100030004F2F0008000000005B2F0008672F00080A
:100040008559000885590008855900088559000818
:100050008559000885590008855900088559000808
:1000600085590008855900088559000885590008F8
:1000700085590008752F0008892F00088559000848
:1000800085590008855900088559000885590008D8
:1000900085590008855900088559000885590008C8
:1000A00085590008855900088559000885590008B8
:1000B00085590008D923000885590008855900088A
:1000C0008559000885590008855900088559000898
:1000D000952F0008855900088559000885590008A2
:1000E000A12F00088559000885590008000000006C
:1000F0000000000000000000000000000000000000
:0C01000000000000000000005FF808F1A3
:10010C000348044B834202D0034B03B1184770479A
:10011C004800002048000020000000000548064B65
:10012C001B1AD90F01EBA301491002D0034B03B1E9
:10013C0018477047480000204800002000000000CD
:10014C0010B5064C237843B9FFF7DAFF044B13B113
:10015C000448AFF300800123237010BD4800002039
:10016C0000000000E059000808B5054B1BB105491B
:10017C000548AFF30080BDE80840FFF7CFBF00BFD4
:10018C00000000004C000020E059000880B58EB043
:10019C0008AF254B1B68254A12681146184600F01B
:1001AC00C2FF002307931E23069304230593012308
:1001BC00049302230393032302930123019300234B
:1001CC000093002300220221002000F060FE002397
:1001DC007B6112E0164A7B6913441B78FB74FB7C31
:1001EC00002B01D0F97C00E020213A1D7B691344DF
:1001FC000A461A707B6901337B617B690C2BE9DD44
:10020C0020237B740023BB743B1D184600F012F8AE
:10021C003B1D184600F05EF83B1D184600F056FFDB
:10022C0000BF1837BD4680BD0000002064000020D0
:10023C005803002080B485B000AF78600023FB60C9
:10024C003FE0234AFB6852F82330BB607B680933DC
:10025C001A78BB681B789A4230D17B680A331A78BB
:10026C00BB6801331B789A4228D17B680B331A7810
:10027C00BB6802331B789A4220D17B680C331A7806
:10028C00BB6803331B789A4218D17B680D337A68AC
:10029C00127B1A707B680C337A68D27A1A707B687E
:1002AC000B337A68927A1A707B680A337A68527ABE
:1002BC001A707B68093320221A7005E0FB68013341
:1002CC00FB60FB680C2BBCDD1437BD4680BC704753
:1002DC000800002080B485B000AF78600023FB607C
:1002EC0081E00023BB6078E0FB687A6813441978DE
:1002FC004348BA6813469B0013445B0003441B78C5
:10030C00994267D1FB6801337A68134419783C48E9
:10031C00BA6813469B0013445B00034401331B78FB
:10032C00994257D1FB6802337A68134419783448E0
:10033C00BA6813469B0013445B00034402331B78DA
:10034C00994247D1FB6803337A68134419782C48D7
:10035C00BA6813469B0013445B00034403331B78B9
:10036C00994237D1FB687A68D1182548BA68134688
:10037C009B0013445B00034405331B780B70FB6834
:10038C0001337A68D1181E48BA6813469B0013448F
:10039C005B00034406331B780B70FB6802337A68EE
:1003AC00D1181748BA6813469B0013445B000344EA
:1003BC0007331B780B70FB6803337A68D11810482D
:1003CC00BA6813469B0013445B00034408331B7844
:1003DC000B7010E0BB680133BB60BB68062B83DD80
:1003EC00FB680133FB60FB6803337A6813441B78AA
:1003FC00002B7FF476AF1437BD4680BC704700BF2E
:10040C00285B0008B0B5A2B008AF414B07F134042B
:10041C001D460FCD0FC40FCD0FC495E80F0084E817
:10042C000F003C4B3C1D1D460FCD0FC40FCD0FC410
:10043C0095E80F0084E80F0000237B665FE07B6E7D
:10044C00C3F10C03344AD35CDBB2012B2CD1334BFC
:10045C001B68334A12681146184600F064FE7B6E26
:10046C009B0068333B4453F8643C0793A0230693EA
:10047C000023059305230493012303930123029383
:10048C00012301930023009300230022002100206C
:10049C0000F0FDFC7B6E9B0068333B4453F8343C0E
:1004AC00184600F013FE27E00021002000F03BFE70
:1004BC007B6E9B0068333B4453F8643C0793A0234A
:1004CC00069300230593052304930123039301232F
:1004DC0002930123019300230093002300220021A7
:1004EC00002000F0D4FC7B6E9B0068333B4453F837
:1004FC00343C184600F0EAFD7B6E01337B667B6E64
:10050C000B2B9CDD00BF00BF6837BD46B0BD00BFE4
:10051C004C5A00087C5A0008780300200400002084
:10052C006400002080B584B000AF03460A46FB800F
:10053C0013467B717B79013BFB6025E0FA88FB68F5
:10054C0042FA03F303F00103002B05D00122202112
:10055C00114803F0CAF904E0002220210E4803F0F0
:10056C00C4F9012210210C4803F0BFF9052000F05A
:10057C005DF800221021084803F0B7F9052000F0BF
:10058C0055F8FB68013BFB60FB68002BD6DA00BF1B
:10059C0000BF1037BD4680BD000C014080B582B055
:1005AC0000AF0346FB71002208210C4803F09DF9B3
:1005BC000A2000F03BF8FB799BB209211846FFF7A3
:1005CC00B1FF01220821054803F08FF90A2000F041
:1005DC002DF800BF0837BD4680BD00BF000C0140A0
:1005EC0080B582B000AF0346FB71002208210E4893
:1005FC0003F07BF90A2000F019F8FB791BB243F4E5
:10060C0080731BB29BB209211846FFF78BFF0122A6
:10061C000821054803F069F90A2000F007F800BF2B
:10062C000837BD4680BD00BF000C014080B586B0C8
:10063C0000AF0346FB80154B9B687B6103F068FDA4
:10064C000346134AA2FB03239B0CFA8802FB03F319
:10065C003B610E4B5B680133FB6008E00B4B9B6806
:10066C00FA689A4203D27A69FB68D31A7B61074B0A
:10067C009B687A69D31A23F07F433A699A42EDD882
:10068C0000BF00BF1837BD4680BD00BF10E000E0C2
:10069C0083DE1B4380B500AFFF20FFF77FFF772081
:1006AC00FFF79EFF0120FFF79BFF0020FFF798FF4D
:1006BC000020FFF795FF1320FFF792FFEF20FFF7C5
:1006CC006DFF0820FFF78CFFFF20FFF767FF7720F7
:1006DC00FFF786FF0120FFF783FF0020FFF780FF65
:1006EC000020FFF77DFF1020FFF77AFFC020FFF7F7
:1006FC0055FF7720FFF774FF0020FFF771FFC12033
:10070C00FFF74CFF1120FFF76BFF0C20FFF768FF82
:10071C00C220FFF743FF0720FFF762FF0220FFF71D
:10072C005FFFC320FFF73AFF8020FFF759FF10202F
:10073C00FFF756FF1020FFF753FFCC20FFF72EFFDB
:10074C003020FFF74DFFB020FFF728FF0620FFF702
:10075C0047FFCF20FFF744FF1420FFF741FF0C2089
:10076C00FFF73EFF0F20FFF73BFF0320FFF738FF9B
:10077C000020FFF735FF0A20FFF732FF0720FFF7B5
:10078C002FFF1B20FFF72CFF0320FFF729FF122060
:10079C00FFF726FF1020FFF723FF2520FFF720FF90
:1007AC003620FFF71DFF1E20FFF71AFFB120FFF7C1
:1007BC00F5FE0C20FFF714FFD420FFF711FF1820D3
:1007CC00FFF70EFF0C20FFF70BFF0E20FFF708FFC3
:1007DC000620FFF705FF0320FFF702FF0620FFF7B7
:1007EC00FFFE0820FFF7FCFE2320FFF7F9FE062092
:1007FC00FFF7F6FE1220FFF7F3FE1020FFF7F0FED6
:10080C003020FFF7EDFE2F20FFF7EAFE1F20FFF749
:10081C00E7FEFF20FFF7C2FE7720FFF7E1FE012085
:10082C00FFF7DEFE0020FFF7DBFE0020FFF7D8FE0F
:10083C001120FFF7D5FEB020FFF7B0FE7320FFF7B5
:10084C00CFFEB120FFF7AAFE7C20FFF7C9FEB22035
:10085C00FFF7A4FE8320FFF7C3FEB320FFF79EFE35
:10086C008020FFF7BDFEB520FFF798FE4920FFF76B
:10087C00B7FEB720FFF792FE8720FFF7B1FEB82036
:10088C00FFF78CFE3320FFF7ABFEB920FFF786FE97
:10089C001020FFF7A5FE1F20FFF7A2FEBB20FFF7DD
:1008AC007DFE0320FFF79CFEC120FFF777FE08209A
:1008BC00FFF796FEC220FFF771FE0820FFF790FEAF
:1008CC00D020FFF76BFE8820FFF78AFEE020FFF7B1
:1008DC0065FE0020FFF784FE0020FFF781FE02205A
:1008EC00FFF77EFE0020FFF77BFE0020FFF778FE6F
:1008FC000C20FFF775FEE120FFF750FE0520FFF7F7
:10090C006FFE9620FFF76CFE0720FFF769FE96201E
:10091C00FFF766FE0620FFF763FE9620FFF760FEEA
:10092C000820FFF75DFE9620FFF75AFE0020FFF728
:10093C0057FE4420FFF754FE4420FFF751FEE220FF
:10094C00FFF72CFE0020FFF74BFE0020FFF748FEC0
:10095C000320FFF745FE0320FFF742FE0020FFF7C0
:10096C003FFE0020FFF73CFE0220FFF739FE00207F
:10097C00FFF736FE0020FFF733FE0020FFF730FEB6
:10098C000220FFF72DFE0020FFF72AFEE320FFF7E1
:10099C0005FE0020FFF724FE0020FFF721FE332088
:1009AC00FFF71EFE3320FFF71BFEE420FFF7F6FDDA
:1009BC004420FFF715FE4420FFF712FEE520FFF759
:1009CC00EDFD0D20FFF70CFED420FFF709FE2820CB
:1009DC00FFF706FE8C20FFF703FE0F20FFF700FE4B
:1009EC00D620FFF7FDFD2820FFF7FAFD8C20FFF73E
:1009FC00F7FD0920FFF7F4FDD020FFF7F1FD2820CB
:100A0C00FFF7EEFD8C20FFF7EBFD0B20FFF7E8FD69
:100A1C00D220FFF7E5FD2820FFF7E2FD8C20FFF741
:100A2C00DFFDE620FFF7BAFD0020FFF7D9FD00201F
:100A3C00FFF7D6FD3320FFF7D3FD3320FFF7D0FDB2
:100A4C00E720FFF7ABFD4420FFF7CAFD4420FFF77A
:100A5C00C7FDE820FFF7A2FD0E20FFF7C1FDD52052
:100A6C00FFF7BEFD2820FFF7BBFD8C20FFF7B8FD7C
:100A7C001020FFF7B5FDD720FFF7B2FD2820FFF7B8
:100A8C00AFFD8C20FFF7ACFD0A20FFF7A9FDD120AC
:100A9C00FFF7A6FD2820FFF7A3FD8C20FFF7A0FD94
:100AAC000C20FFF79DFDD320FFF79AFD2820FFF7C0
:100ABC0097FD8C20FFF794FDEB20FFF76FFD0020D6
:100ACC00FFF78EFD0120FFF78BFDE420FFF788FD7B
:100ADC00E420FFF785FD4420FFF782FD0020FFF79F
:100AEC007FFDED20FFF75AFDF320FFF779FDC120C4
:100AFC00FFF776FDBA20FFF773FD0F20FFF770FDAF
:100B0C006620FFF76DFD7720FFF76AFD4420FFF7A5
:100B1C0067FD5520FFF764FD5520FFF761FD44206C
:100B2C00FFF75EFD7720FFF75BFD6620FFF758FDB2
:100B3C00F020FFF755FDAB20FFF752FD1C20FFF70F
:100B4C004FFD3F20FFF74CFDEF20FFF727FD102056
:100B5C00FFF746FD0D20FFF743FD0420FFF740FD96
:100B6C000820FFF73DFD3F20FFF73AFD1F20FFF760
:100B7C0037FDFF20FFF712FD7720FFF731FD012035
:100B8C00FFF72EFD0020FFF72BFD0020FFF728FDBF
:100B9C001320FFF725FDE820FFF700FD0020FFF7ED
:100BAC001FFD0E20FFF71CFDE820FFF7F7FC0020CF
:100BBC00FFF716FD0C20FFF713FD0A2002F068FA70
:100BCC00E820FFF7EBFC4020FFF70AFD0020FFF7C1
:100BDC0007FDFF20FFF7E2FC7720FFF701FD012066
:100BEC00FFF7FEFC0020FFF7FBFC0020FFF7F8FCF2
:100BFC000020FFF7F5FC3620FFF7D0FC0020FFF7B4
:100C0C00EFFC3A20FFF7CAFC6620FFF7E9FC112045
:100C1C00FFF7C4FC782002F03BFA2920FFF7BEFC5A
:100C2C00142002F035FA00BF80BD000080B500AF83
:100C3C0000224FF48061084802F057FE642002F055
:100C4C0027FA01224FF48061034802F04EFE642023
:100C5C0002F01EFA00BF80BD000C014080B584B0CC
:100C6C0000AF0346FB710023FB73002210210D48DB
:100C7C0002F03BFE07F10F014FF0FF3301220A484F
:100C8C0003F0F2FAF91D4FF0FF330122064803F08E
:100C9C00EBFA01221021034802F027FE00BF1037A7
:100CAC00BD4680BD00080140D003002080B584B053
:100CBC0000AF0346FB718023FB73002210210D480B
:100CCC0002F013FE07F10F014FF0FF3301220A4827
:100CDC0003F0CAFAF91D4FF0FF330122064803F066
:100CEC00C3FA01221021034802F0FFFD00BF1037A8
:100CFC00BD4680BD00080140D003002080B582B005
:100D0C0000AFC023FB710023BB71002210210D48E2
:100D1C0002F0EBFDF91D4FF0FF3301220A4803F0FE
:100D2C00A3FAB91D4FF0FF330122074803F0D8FB9B
:100D3C0001221021034802F0D8FDBB791846083770
:100D4C00BD4680BD00080140D003002080B582B0B4
:100D5C0000AF03460A46FB711346BB71FB7918467C
:100D6C00FFF77CFFBB791846FFF7A0FF00BF0837E1
:100D7C00BD4680BD80B500AF00F074FD0A2002F0C6
:100D8C0087F900F059FA642002F082F900F073FB45
:100D9C00052002F07DF900F0D1FB642002F078F917
:100DAC008420FFF75BFF0020FFF780FF052002F097
:100DBC006FF900F0EBFC052002F06AF94FF470714A
:100DCC00F02000F0FFFB052002F062F9802000F01B
:100DDC0040FC052002F05CF9052000F05DFC0520CC
:100DEC0002F056F9052000F073FC052002F050F9D2
:100DFC000B2000F089FC052002F04AF9052000F0D8
:100E0C009DFC052002F044F9052000F0ABFC052008
:100E1C0002F03EF900F097FD052002F039F900F0E0
:100E2C00BDFA052002F034F900F04AFD052002F06D
:100E3C002FF900F055FD052002F02AF900F0C8F951
:100E4C00052002F025F900F06EFD052002F020F9D6
:100E5C0000F0BBFD052002F01BF900F0E2FD0520BF
:100E6C0002F016F900F083FD052002F011F900F0F4
:100E7C008EFD052002F00CF900F006FD052002F0B5
:100E8C0007F900F08DF900F0B7F800BF80BD90B500
:100E9C0085B000AF0446084611461A462346FB713E
:100EAC000346BB710B467B7113463B710023FB73EE
:100EBC000023BB7397F907309B015AB297F90F3097
:100ECC0013435BB2FB7397F906301B015BB203F063
:100EDC0030035AB297F90F3013435BB2FB7397F997
:100EEC00053003F003035AB297F90F3013435BB28A
:100EFC00FB73CC20FFF7B2FEFB7B1846FFF7D6FE48
:100F0C0097F90430DB015AB297F90E3013435BB2F8
:100F1C00BB7397F920309B015AB297F90E301343EB
:100F2C005BB2BB7397F924301B015AB297F90E30A0
:100F3C0013435BB2BB7397F928309B005BB203F091
:100F4C000C035AB297F90E3013435BB2BB7397F98B
:100F5C002C3003F003035AB297F90E3013435BB2F3
:100F6C00BB73CD20FFF77AFEBB7B1846FFF79EFEC6
:100F7C00D020FFF773FE97F8303003F01F03DBB27D
:100F8C001846FFF793FED120FFF768FE97F8343030
:100F9C0003F03F03DBB21846FFF788FE6320FFF730
:100FAC005DFE3B8FDBB21846FFF780FE6420FFF737
:100FBC0055FE3B8F1B0A9BB2DBB203F01F03DBB267
:100FCC001846FFF773FE6520FFF748FEBB8FDBB2B8
:100FDC001846FFF76BFE6620FFF740FEBB8F1B0A1F
:100FEC009BB2DBB203F01F03DBB21846FFF75EFEC9
:100FFC0000BF1437BD4690BD80B58AB008AF08233A
:10100C007B8010233B800021002000F08CF8002313
:10101C0007930023069300230593002304930123D5
:10102C0003930123029301230193002300930023D4
:10103C00002200210020FFF72AFF0023FB803AE06A
:10104C000023BB8030E06320FFF708FEBB88DBB2D7
:10105C001846FFF72BFE6420FFF700FEBB881B0A27
:10106C009BB2DBB203F01F03DBB21846FFF71EFE88
:10107C006520FFF7F3FDFB88DBB21846FFF716FE81
:10108C006620FFF7EBFDFB881B0A9BB2DBB203F07B
:10109C001F03DBB21846FFF709FE0B4800F016F8E9
:1010AC00BA883B881344BB80BB88EF2BCBD9FA881A
:1010BC007B881344FB80FB88B3F5707FC0D300BFE3
:1010CC0000BF0837BD4680BD145B000880B584B0F6
:1010DC0000AF78601EE0BA20FFF7C0FDFFF70EFEF0
:1010EC000346FB7306E0BA20FFF7B8FDFFF706FED8
:1010FC000346FB73FB7B03F04003002BF3D104206E
:10110C00FFF7ACFD7B681B781846FFF7CFFD7B68BB
:10111C0001337B607B681B78002BDCD100BF00BFE8
:10112C001037BD4680BD80B582B000AF78603960A5
:10113C00D220FFF793FD7B681B0CDBB21846FFF740
:10114C00B5FDD320FFF78AFD7B681B0ADBB218467E
:10115C00FFF7ACFDD420FFF781FD7B68DBB21846AE
:10116C00FFF7A4FDD520FFF779FD3B681B0CDBB224
:10117C001846FFF79BFDD620FFF770FD3B681B0A56
:10118C00DBB21846FFF792FDD720FFF767FD3B68EF
:10119C00DBB21846FFF78AFD00BF0837BD4680BD9D
:1011AC0080B582B000AF0023FB71FB7943F00403E0
:1011BC00FB71FB7923F00303FB710320FFF74EFD5A
:1011CC00FB791846FFF772FD00BF0837BD4680BD9E
:1011DC0080B500AF5620FFF741FD0020FFF766FDFC
:1011EC005720FFF73BFD0020FFF760FD5820FFF76D
:1011FC0035FD0020FFF75AFD5920FFF72FFD002089
:10120C00FFF754FD5A20FFF729FDEF20FFF74EFDA5
:10121C005B20FFF723FD0020FFF748FD5C20FFF764
:10122C001DFDBF20FFF742FD5D20FFF717FD0320DA
:10123C00FFF73CFD00BF80BD80B588B000AF554BBB
:10124C007B617B6903F5F42303F59073524AA2FB8F
:10125C0003239B0C7B617B69FB837B699BB25B00EB
:10126C00BB837B699BB25B007B83FB8B412B01D9DE
:10127C004123FB83BB8B642B01D96423BB837B8B06
:10128C00642B01D964237B8302237B8202233B8260
:10129C000223FB810523BB8105237B8105233B8135
:1012AC00FB8BFB807B8BBB80BB8B7B800520FFF794
:1012BC00D5FC7B8A5BB29B015AB2BB895BB25B00EB
:1012CC005BB213435AB2FB881B0A9BB25BB203F0AE
:1012DC0001035BB213435BB2DBB21846FFF7E6FCCB
:1012EC000620FFF7BBFCFB88DBB21846FFF7DEFCE1
:1012FC000720FFF7B3FCFB895BB29B015AB23B8919
:10130C005BB25B005BB213435AB27B881B0A9BB285
:10131C005BB203F001035BB213435BB2DBB2184662
:10132C00FFF7C4FC0820FFF799FC7B88DBB218465A
:10133C00FFF7BCFC0920FFF791FC3B8A5BB29B01D9
:10134C005AB27B895BB25B005BB213435AB2BB8867
:10135C001B0A9BB25BB203F001035BB213435BB29B
:10136C00DBB21846FFF7A2FC0A20FFF777FCBB881C
:10137C00DBB21846FFF79AFC0020FFF76FFC8020C9
:10138C00FFF794FC0A2001F083FE00BF2037BD4616
:10139C0080BD00BF787E530183DE1B4380B582B0D5
:1013AC0000AF0023FB71FB7943F00403FB711020A9
:1013BC00FFF754FCFB791846FFF778FC2A20FFF75F
:1013CC004DFC0020FFF772FC2B20FFF747FC0020A0
:1013DC00FFF76CFC2C20FFF741FC0020FFF766FCAC
:1013EC002D20FFF73BFC0020FFF760FC2E20FFF7C1
:1013FC0035FC6420FFF75AFC2F20FFF72FFC002050
:10140C00FFF754FC3020FFF729FC6420FFF74EFC5B
:10141C003120FFF723FC0020FFF748FC3220FFF7B8
:10142C001DFC0020FFF742FC3320FFF717FC0020C7
:10143C00FFF73CFC3420FFF711FC0020FFF736FCD3
:10144C003520FFF70BFC0020FFF730FC0023BB71AD
:10145C00BB7943F00403BB71BB7943F00103BB714F
:10146C001120FFF7FBFBBB791846FFF71FFC00BFF1
:10147C000837BD4680BD80B582B000AF0023FB713C
:10148C00E420FFF7EBFBFB7943F00403FB71FB79E2
:10149C001846FFF70BFCE020FFF7E0FB2920FFF7D5
:1014AC0005FCE120FFF7DAFB0320FFF7FFFB9C2391
:1014BC00BB80BB88023BBB80E220FFF7CFFBBB8825
:1014CC00DBB21846FFF7F2FBE320FFF7C7FBBB8844
:1014DC001B0A9BB2DBB21846FFF7E8FBE420FFF7D0
:1014EC00BDFB0120FFF7E2FBE420FFF7B7FBFB7924
:1014FC0023F00403FB71FB791846FFF7D7FB01209F
:10150C0001F0C6FD00F004F800BF0837BD4680BDF1
:10151C0080B582B000AFE420FFF7A0FBFFF7EEFB35
:10152C000346FB71FB7903F00103002BF3D00A2077
:10153C0001F0AEFD00BF0837BD4680BD80B582B05E
:10154C0000AF0023FB71FB7943F00803FB71FB79BF
:10155C0043F04003FB710120FFF780FBFB79184639
:10156C00FFF7A4FB0023FB710220FFF777FBFB794D
:10157C001846FFF79BFB0023FB710320FFF76EFB64
:10158C00FB791846FFF792FB0023FB711220FFF743
:10159C0065FBFB791846FFF789FB0023FB71FB7990
:1015AC0043F00203FB71FB7943F00103FB71132041
:1015BC00FFF754FBFB791846FFF778FB00BF0837A1
:1015CC00BD4680BD80B584B000AF03460A46FB80A3
:1015DC001346BB80FB88DB089BB2013BFB810023DD
:1015EC00BB811420FFF73AFBFB89DBB21846FFF7EF
:1015FC005DFB1520FFF732FBBB89DBB203F00F0359
:10160C00DBB21846FFF752FBBB88B3F5806F02D9EB
:10161C004FF48063BB80BB88002B01D10123BB80BE
:10162C00BB88013B7B811A20FFF718FB7B89DBB25F
:10163C001846FFF73BFB1B20FFF710FB7B891B0AAF
:10164C009BB2DBB21846FFF731FB00BF1037BD462B
:10165C0080BD80B584B000AF0346FB80FB88DB08FF
:10166C009BB2013BFB810023BB811620FFF7F6FAEE
:10167C00FB89DBB21846FFF719FB1720FFF7EEFAD0
:10168C00BB89DBB203F00F03DBB21846FFF70EFB8E
:10169C0000BF1037BD4680BD80B584B000AF034697
:1016AC00FB80FB88072B02D80023FB8104E0FB881E
:1016BC00DB089BB2013BFB811820FFF7CFFAFB89BB
:1016CC00DBB21846FFF7F2FA00BF1037BD4680BDFB
:1016DC0080B584B000AF0346FB80FB88072B02D893
:1016EC000023FB8104E0FB88DB089BB2013BFB8100
:1016FC001920FFF7B3FAFB89DBB21846FFF7D6FACD
:10170C0000BF1037BD4680BD80B584B000AF034626
:10171C00FB80FB88DBB2013BFB731C20FFF79EFABE
:10172C00FB7B1846FFF7C2FA1D20FFF797FA002043
:10173C00FFF7BCFA00BF1037BD4680BD80B584B042
:10174C0000AF0346FB80FB88DBB2013BFB731E2022
:10175C00FFF784FAFB7B1846FFF7A8FA00BF103797
:10176C00BD4680BD80B584B000AF0346FB80FB88CE
:10177C00DBB2013BFB731F20FFF770FAFB7B1846B3
:10178C00FFF794FA00BF1037BD4680BD80B582B01C
:10179C0000AF0023FB71FB7943F04003FB71FB7935
:1017AC0043F00803FB711220FFF758FAFB79184637
:1017BC00FFF77CFA00BF0837BD4680BD80B584B00A
:1017CC0000AF0346FB71FB79642B01D96423FB71D9
:1017DC008420FFF743FA1020FFF768FA8520FFF703
:1017EC003DFA8820FFF762FAFA7913461B029B1A1E
:1017FC001B4A82FB03125211DB17D31AFB81FF2306
:10180C00BB818C20FFF72AFAFB89DBB21846FFF765
:10181C004DFA8D20FFF722FAFB891B0A9BB2DBB233
:10182C001846FFF743FA8E20FFF718FABB89DBB294
:10183C001846FFF73BFA8F20FFF710FABB891B0AFB
:10184C009BB2DBB21846FFF731FA8620FFF706FA97
:10185C003020FFF72BFA00BF1037BD4680BD00BF0C
:10186C001F85EB5180B582B000AF0023FB71FB7973
:10187C0043F00103FB71FB7919460020FFF766FA70
:10188C0000BF0837BD4680BD80B500AF2020FFF7F4
:10189C00E5F90020FFF70AFA2120FFF7DFF9002015
:1018AC00FFF704FA2220FFF7D9F90020FFF7FEF921
:1018BC002320FFF7D3F90020FFF7F8F900BF80BD14
:1018CC0080B500AF2420FFF7C9F9F020FFF7EEF93F
:1018DC002520FFF7C3F90020FFF7E8F900BF80BD12
:1018EC0080B582B000AF0023FB80FB88DBB223F015
:1018FC0003037B71FB881B0A9BB2DBB203F01F0353
:10190C003B712620FFF7AAF97B791846FFF7CEF931
:10191C002720FFF7A3F93B791846FFF7C7F900BF5B
:10192C000837BD4680BD80B500AF2820FFF796F97B
:10193C000020FFF7BBF92920FFF790F90020FFF7F3
:10194C00B5F900BF80BD80B582B000AF0023FB713C
:10195C00FB7943F00103FB715E20FFF77FF9FB7904
:10196C001846FFF7A3F900BF0837BD4680BD80B508
:10197C0000AF5F20FFF772F90020FFF797F96020A6
:10198C00FFF76CF90020FFF791F900BF80BD80B51F
:10199C0082B000AF0023FB806120FFF75FF9FB886A
:1019AC00DBB21846FFF782F96220FFF757F9FB8884
:1019BC001B0A9BB2DBB203F01F03DBB21846FFF726
:1019CC0075F900BF0837BD4680BD80B582B000AF49
:1019DC0000237B605020FFF741F97B68DBB218468F
:1019EC00FFF764F95120FFF739F97B681B0ADBB26A
:1019FC001846FFF75BF95220FFF730F97B681B0C98
:101A0C00DBB21846FFF752F95320FFF727F97B6832
:101A1C001B0EDBB21846FFF749F900BF0837BD466D
:101A2C0080BD80B500AF5420FFF718F9F020FFF708
:101A3C003DF95520FFF712F90020FFF737F900BFE9
:101A4C0080BD90B583B000AF0446084611461A46D7
:101A5C002346FB800346BB800B467B8013463B80B2
:101A6C006820FFF7FBF8FB88DBB21846FFF71EF97E
:101A7C006920FFF7F3F8FB881B0A9BB2DBB203F07B
:101A8C001F03DBB21846FFF711F96A20FFF7E6F8DF
:101A9C00BB88DBB21846FFF709F96B20FFF7DEF8BD
:101AAC00BB881B0A9BB2DBB203F01F03DBB21846E8
:101ABC00FFF7FCF86C20FFF7D1F87B88DBB21846F7
:101ACC00FFF7F4F86D20FFF7C9F87B881B0A9BB26F
:101ADC00DBB203F01F03DBB21846FFF7E7F86E200A
:101AEC00FFF7BCF83B88DBB21846FFF7DFF86F2036
:101AFC00FFF7B4F83B881B0A9BB2DBB203F01F0361
:101B0C00DBB21846FFF7D2F8D220FFF7A7F83B8BD1
:101B1C00DBB21846FFF7CAF8D320FFF79FF8BB8B50
:101B2C00DBB21846FFF7C2F8D420FFF797F83B8CCE
:101B3C00DBB21846FFF7BAF86720FFF78FF8802062
:101B4C00FFF7B4F800BF0C37BD4690BD80B58AB026
:101B5C0000AF4FF40061924801F0B0FE0346FB72F7
:101B6C00FB7A012B0CBF01230023DBB21A468D4BF1
:101B7C001A708C4B1B78DAB28B4B1A70FB7A012BD8
:101B8C0005D18A4B1B680133884A136004E0884BEB
:101B9C001B680133864A1360864B1B680133854AE8
:101BAC0013604FF480517E4801F088FE0346012BF0
:101BBC0040F07583FB7A012B01D1012300E0002357
:101BCC00BB727D4B1B78BA7A9A4215D07B4B0022A4
:101BDC001A707B4B00221A707A4B00221A70BB7A57
:101BEC00002B06D0784B00221A80784B00221A70FA
:101BFC0002E0774B02221A706F4ABB7A1370FB7AA1
:101C0C00012B40F08581734B1B680133714A1360C3
:101C1C004FF48041624801F051FE034603F001038A
:101C2C00FB706D4AFB781370FB78002B04D06B4B68
:101C3C001B680133694A1360694B1B885A1C91B2AB
:101C4C00674A11801946674AFB785354644B1B88CA
:101C5C00DBB29AB2624B1A80634B1B680133624A47
:101C6C001360FB78594A127893409AB2564B1B88F2
:101C7C0013439AB2544B1A80544B1B780133DAB28B
:101C8C00524B1A70514B1B780A2B40F009834E4B68
:101C9C001A88564B1A80554B1B889AB2544B1A8093
:101CAC00544B1B78DBB25A1CD1B2524A117003F060
:101CBC000F034E4A128891B24F4A22F813104B4B25
:101CCC001B889BB203F47F63602B04D14B4B1B68C6
:101CDC0001334A4A1360454B1B889BB203F47F6364
:101CEC00A02B04D1464B1B680133454A13603F4B74
:101CFC001B889BB2282B26D03C4B1B889BB2682B95
:101D0C0021D03A4B1B889BB2A82B1CD0374B1B887D
:101D1C009BB2B3F53C7F16D0344B1B889BB2B3F50A
:101D2C00387F10D0314B1B889BB2B3F57C7F0AD027
:101D3C002E4B1B889BB2B3F5487F04D0314B1B68EC
:101D4C000133304A1360204B1A882F4B1A801E4BDC
:101D5C0000221A801D4B00221A702C4B1B78DBB210
:101D6C00002B11D02A4B1B78002B0DD0294B1B6854
:101D7C000133284A1360254B00221A70244B002291
:101D8C001A70254B00221A70184B1B889BB2282BFB
:101D9C0046D1224B1B680133204A136075E000BF0B
:101DAC00000C01407D0200206C0200208402002007
:101DBC008802002070020020AE020020D002002019
:101DCC00D1020020D2020020D8020020DA0200202A
:101DDC00DB020020D40200207C02002080020020C4
:101DEC006802002068000020740200208C02002091
:101DFC00DC0200200C030020EC020020E402002096
:101E0C00E8020020E0020020C40200208F02002023
:101E1C00AF020020CC02002090020020B40200206F
:101E2C00874B1B889BB21A4640F6F8731340682BFD
:101E3C0005D1844B1B680133824A136025E0804B2B
:101E4C001B889BB21A4640F6F8731340A82B05D199
:101E5C007D4B1B6801337C4A136016E0784B1B8862
:101E6C009BB2B3F53C7F05D1784B1B680133774AA5
:101E7C0013600AE0724B1B889BB2B3F5387F04D118
:101E8C00734B1B680133724A1360724B00221A7039
:101E9C00714B00221A706A4B1B889BB2282B06D1FF
:101EAC006E4B06221A706E4B01221A702AE0644B9C
:101EBC001B889BB2682B06D1684B06221A70684BA4
:101ECC0002221A701EE05E4B1B889BB2A82B06D117
:101EDC00624B06221A70624B03221A7012E0584BA6
:101EEC001B889BB2B3F53C7F06D15C4B02221A7067
:101EFC005B4B04221A7005E0584B00221A70584BA9
:101F0C0000221A70554B1B78DAB2564B1A70C7E187
:101F1C00554B1B78002B06D0534B1B78013BDAB288
:101F2C00514B1A70BCE14FF40041504801F0C6FC13
:101F3C00034603F001037B724D4A7B7A13707B7A64
:101F4C00002B04D04B4B1B6801334A4A13604A4B9D
:101F5C001B885A1C91B2484A11801946474A7B7A11
:101F6C005354454B1B88DBB29AB2434B1A80444BFB
:101F7C001B680133424A13607B7A424A12789340C1
:101F8C00DAB2414B1B781343DAB23F4B1A703D4B1C
:101F9C001B780133DAB23B4B1A703A4B1B78082B87
:101FAC0040F07E81384B1A78384B1A70364B002231
:101FBC001A70344B00221A70284B1B78DBB2002BA2
:101FCC0000F06E81264B1B78002B00F06981244BAE
:101FDC001B78012B0ED11F4B1B78DBB2052B09D8BC
:101FEC001C4B1B78DBB21A46284B1B78D9B2284BFA
:101FFC00995465E01A4B1B78022B0ED1154B1B78AC
:10200C00DBB2052B09D8134B1B78DBB21A461F4BDE
:10201C001B78D9B21F4B995452E0114B1B78032BF0
:10202C003CD10C4B1B78DBB2052B37D8094B1B78FA
:10203C00DBB21A46154B1B78D9B2174B99543FE0BB
:10204C008C020020B8020020BC020020C00200203C
:10205C00C802002090020020910200208F02002074
:10206C00AF020020B0020020DB020020000C014077
:10207C007C020020800200206A02002068010020FF
:10208C0078020020D2020020D10200208E02002013
:10209C00940200209C020020A4020020824B1B789A
:1020AC00042B0DD1814B1B78DBB2012B08D87F4B55
:1020BC001B78DBB21A467E4B1B78D9B27D4B9954F8
:1020CC007A4B1B78DBB20133DAB2784B1A70774B50
:1020DC001B78DAB2784B1B78DBB29A42C0F0E08006
:1020EC00714B1B783B72744B00221A706E4B0022A2
:1020FC001A703B7A032B32D1704B1B6801336F4A39
:10210C0013606F4B1B889AB26E4B1A80002387F8B2
:10211C00273000233B6216E06B4A3B6A13441B7862
:10212C00D9B26A4A3B6A13440A461A70664A3B6A39
:10213C0013441B78DAB297F82730134387F827300B
:10214C003B6A01333B623B6A052BE5DD97F8273090
:10215C00002B04D05E4B1B6801335D4A13603B7A45
:10216C00012B05D03B7A022B02D03B7A032B6ED18C
:10217C005849594800F08AFA584B01221A70564BAC
:10218C001B7ADAB2564B1A70534B1B7ADAB2554B98
:10219C001A700023FB610023BB611DE0FB695A1C14
:1021AC00FA614D49BA690A441278D1B24E4AD154F7
:1021BC00484ABB6913441B78DBB2202B09D0FB695E
:1021CC005A1CFA614349BA690A441278D1B2464A98
:1021DC00D154BB690133BB61BB690B2BDEDD424AB9
:1021EC00FB69134400221A7000237B6111E07B69A8
:1021FC00DBB20133BB71BB79184600F029F90346F9
:10220C0019463A4A7B6913440A461A707B690133B2
:10221C007B617B690B2BEADD00233B6111E03B69A1
:10222C00DBB20133FB71FB79184600F07BFA0346F5
:10223C0019462F4A3B6913440A461A703B6901330D
:10224C003B613B690B2BEADD2A4B01221A703B7A6E
:10225C00042B25D1174B1B78DBB21AB2154B5B78CC
:10226C00DBB21BB21B021BB213431BB2BB8001239C
:10227C00FB6010E0BA88FB68013B42FA03F3DBB267
:10228C0003F00103D9B21C4AFB6813440A461A70C6
:10229C00FB680133FB60FB680C2BEBDD00E000BF3F
:1022AC002837BD4680BD00BFAF0200209002002041
:1022BC008E020020AC0200208F02002010030020B0
:1022CC008C0200201A030020A4020020140300201A
:1022DC001C03002048030020380300208703002043
:1022EC0085030020860300205803002020030020D3
:1022FC002C030020910200207803002080B58AB0C6
:10230C0000AF07F1180300221A605A609A60DA6075
:10231C0007F1100300221A605A603B4600221A6033
:10232C005A609A60DA60274B274A1A60254B47227D
:10233C005A60244B00229A60224B4FF6FF72DA60EF
:10234C00204B00221A611F4B00229A611D4802F09B
:10235C0073FC0346002B01D000F0DDFC4FF48053DE
:10236C00BB6107F118031946164802F05FFF0346DC
:10237C00002B01D000F0CFFC00233B6001237B60DD
:10238C000023BB600023FB603B460C2219460D4822
:10239C0002F0B8FE0346002B01D000F0BCFC002379
:1023AC003B6100237B6107F110031946054803F0DC
:1023BC004FFA0346002B01D000F0ADFC00BF2837CC
:1023CC00BD4680BD880300200004004080B500AFEE
:1023DC00024802F08FFD00BF80BD00BF88030020C3
:1023EC0080B582B000AF0346FB80FB88B3F5006F6D
:1023FC000DD14FF40061084801F060FA03461A460B
:10240C00064B1A704FF40051054801F086FA00BFD4
:10241C000837BD4680BD00BF000C01406C02002097
:10242C000010014080B582B000AF78607B681B68FB
:10243C00064A934205D17B681B7F082B01D1FFF71D
:10244C0085FB00BF0837BD4680BD00BF00040040BF
:10245C0080B485B000AF0346FB71FB79C3F10C036C
:10246C00DA0F13445B10BB73FB7903F00103002BF1
:10247C000CBF01230023DBB27B73BB7B534AD35CC1
:10248C003B73BB7B524AD35CFB72BB7B514AD35C24
:10249C00BB720023FB737B7B002B45D0BB7A9B016B
:1024AC00DBB203F04003DAB2FB7B1343FB73FB7A22
:1024BC005B08DBB25B01DBB203F02003DAB2FB7B1F
:1024CC001343FB73FB7A1B01DBB203F01003DAB28C
:1024DC00FB7B1343FB733B7BDB08DBB2DB00DBB228
:1024EC0003F00803DAB2FB7B1343FB733B7B9B08C3
:1024FC00DBB29B00DBB203F00403DAB2FB7B1343C9
:10250C00FB733B7B5B08DBB25B00DBB203F00203CB
:10251C00DAB2FB7B1343FB733B7B03F00103DAB2B0
:10252C00FB7B1343FB734AE0BB7A1B09DBB29B01B9
:10253C00DBB203F04003DAB2FB7B1343FB73FB7A91
:10254C005B09DBB25B01DBB203F02003DAB2FB7B8D
:10255C001343FB73FB7A1B09DBB21B01DBB203F0E9
:10256C001003DAB2FB7B1343FB733B7BDB09DBB25F
:10257C00DB00DBB203F00803DAB2FB7B1343FB7323
:10258C003B7B9B09DBB29B00DBB203F00403DAB2AA
:10259C00FB7B1343FB733B7B5B09DBB25B00DBB266
:1025AC0003F00203DAB2FB7B1343FB733B7B1B0987
:1025BC00DBB203F00103DAB2FB7B1343FB73FB7B4F
:1025CC0018461437BD4680BC704700BF94020020EB
:1025DC009C020020A402002080B485B000AF03460A
:1025EC00FB71FB79C3F10C03DA0F13445B10FB7323
:1025FC00FB7903F00103002B0CBF01230023DBB29A
:10260C00BB73FB7B0A4AD35C7B73BB7B002B06D072
:10261C007B7B9B08DBB203F00303DBB202E07B7B2A
:10262C009B09DBB218461437BD4680BC704700BF0F
:10263C009C02002080B485B000AF0346FB71FB798F
:10264C003F2B01D13D231CE0FB791F2B01D15F23D4
:10265C0017E0FB791F2B0BD8FB7943F04003FB737E
:10266C00FB7B402B04D9FB7B5A2B01D8FB7B08E06E
:10267C00FB791F2B04D9FB797E2B01D8FB7900E069
:10268C003F2318461437BD4680BC704790B585B0C3
:10269C0000AF786039600023FB6034E0FB68DBB28C
:1026AC000133BB72BB7A1846FFF7D2FE0346FB72AE
:1026BC00FB7A3F2B01D13D23FB72FB687A68D4185F
:1026CC00FB7A1846FFF7B6FF03462370BB7A184611
:1026DC00FFF782FF03467B727B7A012B0BD07B7A50
:1026EC00022B06D07B7A032B01D12C2304E0202370
:1026FC0002E03A2300E02E23FA6839680A4413708A
:10270C00FB680133FB60FB680B2BC7DD7B680C336C
:10271C0000221A703B680C3300221A7000BF143769
:10272C00BD4690BD80B485B000AF0346FB71FB790C
:10273C00C3F10C03DA0F13445B10BB73FB7903F08A
:10274C000103002B0CBF01230023DBB27B73BB7B8B
:10275C00534AD35C3B73BB7B524AD35CFB72BB7B4F
:10276C00514AD35CBB720023FB737B7B002B45D09F
:10277C00BB7A9B01DBB203F04003DAB2FB7B134361
:10278C00FB73FB7A5B01DBB203F02003DAB2FB7B59
:10279C001343FB73FB7A5B08DBB21B01DBB203F068
:1027AC001003DAB2FB7B1343FB733B7BDB08DBB21E
:1027BC00DB00DBB203F00803DAB2FB7B1343FB73E1
:1027CC003B7B9B08DBB29B00DBB203F00403DAB269
:1027DC00FB7B1343FB733B7B5B08DBB25B00DBB225
:1027EC0003F00203DAB2FB7B1343FB733B7B03F076
:1027FC000103DAB2FB7B1343FB734AE0BB7A1B0980
:10280C00DBB29B01DBB203F04003DAB2FB7B134378
:10281C00FB73FB7A1B09DBB25B01DBB203F0200319
:10282C00DAB2FB7B1343FB73FB7A5B09DBB21B0154
:10283C00DBB203F01003DAB2FB7B1343FB733B7B7D
:10284C00DB09DBB2DB00DBB203F00803DAB2FB7BA3
:10285C001343FB733B7B9B09DBB29B00DBB203F0A6
:10286C000403DAB2FB7B1343FB733B7B5B09DBB2E8
:10287C005B00DBB203F00203DAB2FB7B1343FB73A6
:10288C003B7B1B09DBB203F00103DAB2FB7B134386
:10289C00FB73FB7B18461437BD4680BC704700BFEA
:1028AC00940200209C020020A402002080B582B07B
:1028BC0000AF0C4B5B690B4A43F001035361094BAE
:1028CC005B6903F001037B607B68002203210D2010
:1028DC0000F0D9FC0D2000F0F2FC00BF0837BD461B
:1028EC0080BD00BF0010024080B58AB000AF07F178
:1028FC00180300221A605A609A60DA607B4B9B695D
:10290C007A4A43F010039361784B9B6903F01003F0
:10291C007B617B69754B9B69744A43F0200393611F
:10292C00724B9B6903F020033B613B696F4B9B69C6
:10293C006E4A43F0040393616C4B9B6903F00403F0
:10294C00FB60FB68694B9B69684A43F00803936121
:10295C00664B9B6903F00803BB60BB68634BDB6988
:10296C00624A43F00203D361604BDB6903F002035C
:10297C007B607B685D4B9B695C4A43F00103936110
:10298C005A4B9B6903F001033B603B6800224FF4F8
:10299C000051574800F0A9FF4FF40053BB610123CD
:1029AC00FB6100233B6202237B6207F1180319468B
:1029BC004F4800F0FFFD4FF48063BB6100233B6286
:1029CC000123FB6102237B6207F118031946494876
:1029DC0000F0F0FD4FF40063BB61474BFB6100233B
:1029EC003B6207F118031946424800F0E3FD02234D
:1029FC00BB610023FB6100233B6207F118031946FE
:102A0C003C4800F0D7FD4FF40043BB610023FB6151
:102A1C0000233B6207F118031946364800F0CAFD43
:102A2C004FF48053BB610023FB6100233B6207F131
:102A3C00180319462F4800F0BDFD4FF48043BB61CD
:102A4C000023FB6100233B6207F118031946294858
:102A5C0000F0B0FD0823BB610123FB6101233B6245
:102A6C0003237B6207F118031946224800F0A2FDEC
:102A7C001023BB610123FB6100233B6203237B62B8
:102A8C0007F1180319461B4800F094FD2023BB6185
:102A9C000123FB6100233B6203237B6207F11803D4
:102AAC001946144800F086FD0123BB610023FB612D
:102ABC0001233B6202237B6207F1180319460D4880
:102ACC0000F078FD00220121282000F0DCFB2820FA
:102ADC0000F0F5FB002202211D2000F0D4FB1D208C
:102AEC0000F0EDFB00BF2837BD4680BD0010024052
:102AFC0000100140000C01400000111080B584B0A2
:102B0C0004AF00F063FA00F0C1F8FFF7EDFEFFF739
:102B1C00CDFE00F005F9FFF7F1FB0C21574802F050
:102B2C00E3F801220821564800F0DFFE00221021B4
:102B3C00534800F0DAFE01224FF48061504800F057
:102B4C00D4FEFEF773F84FF47A7000F0A1FAFDF79B
:102B5C00A1FD642000F09CFAFEF70CF90A2000F0AD
:102B6C0097FA052000F094FA0A20FEF727FEFEF7EC
:102B7C0043FA00230293002301930023009340F2B5
:102B8C00BF33EF2240F2BF310020FEF75AFF002383
:102B9C000293002301930023009340F2BE33EF22F3
:102BAC0040F2BE310020FEF74CFF002302930023BD
:102BBC0001930023009340F2BD33EF2240F2BD316C
:102BCC000020FEF73EFF0023029300230193002315
:102BDC0000934FF46F73EF224FF46F710020FEF7E8
:102BEC0030FF00230293002301930023009340F253
:102BFC00BB33EF2240F2BB310020FEF722FF002353
:102C0C000293002301930023009340F2BA33EF2286
:102C1C0040F2BA310020FEF714FF00230293002388
:102C2C0001930023009340F2B933EF2240F2B93103
:102C3C000020FEF706FF00230293002301930023DC
:102C4C0000934FF46E73EF224FF46E710020FEF779
:102C5C00F8FE0C4B4FF400625A614FF400510A48D5
:102C6C0000F05BFEFDF792FA0A2000F011FAFDF776
:102C7C00C9FB0A2000F00CFAEFE700BF8803002024
:102C8C00000C0140000401400010014080B590B0E0
:102C9C0000AF07F1180328220021184602F06DFE40
:102CAC003B1D00221A605A609A60DA601A61012397
:102CBC00BB614FF48033FB6100233B620123BB6299
:102CCC0002237B634FF48033BB634FF4E013FB634D
:102CDC0007F11803184600F051FE0346002B01D0F3
:102CEC0000F019F80F237B600223BB600023FB600C
:102CFC004FF480633B6100237B613B1D022118462E
:102D0C0001F0BEF80346002B01D000F004F800BF20
:102D1C004037BD4680BD80B400AF72B600BFFEE741
:102D2C0080B500AF174B184A1A60164B4FF48272DD
:102D3C005A60144B00229A60124B0022DA60114B3D
:102D4C0002221A610F4B01225A610E4B4FF4007292
:102D5C009A610C4B1022DA610A4B00221A62094B61
:102D6C0000225A62074B00229A62064B0A22DA6250
:102D7C00044801F0F5F90346002B01D0FFF7CBFF17
:102D8C0000BF80BDD00300200030014080B588B06A
:102D9C0000AF786007F1100300221A605A609A6045
:102DAC00DA607B681B683E4A934275D13D4B9B6948
:102DBC003C4A43F4805393613A4B9B6903F4805330
:102DCC00FB60FB68374B9B69364A43F00403936105
:102DDC00344B9B6903F00403BB60BB6820233B614D
:102DEC0002237B610023BB610323FB6107F110030A
:102DFC0019462D4800F0DEFB40233B6100237B612C
:102E0C000123BB610323FB6107F11003194626481C
:102E1C0000F0D0FB80233B6102237B610023BB616C
:102E2C000323FB6107F1100319461F4800F0C2FB96
:102E3C0010233B6101237B610023BB610323FB61F6
:102E4C0007F110031946184800F0B4FB174B184A49
:102E5C001A60164B10225A60144B00229A60134BC6
:102E6C008022DA60114B00221A61104B00225A6149
:102E7C000E4B00229A610D4B0022DA610B4800F0D8
:102E8C0039FA0346002B01D0FFF745FF7B68074A50
:102E9C009A64064A7B68536200BF2037BD4680BDEA
:102EAC0000300140001002400008014028040020BE
:102EBC003000024080B485B000AF154B9B69144ABA
:102ECC0043F001039361124B9B6903F00103BB6058
:102EDC00BB680F4BDB690E4A43F08053D3610C4B3C
:102EEC00DB6903F080537B607B680A4B5B68FB609B
:102EFC00FB6823F0E063FB60FB6843F00073FB604E
:102F0C00044AFB68536000BF1437BD4680BC704751
:102F1C00001002400000014080B400AFFEE780B416
:102F2C0000AFFEE780B400AFFEE780B400AFFEE771
:102F3C0080B400AFFEE780B400AF00BFBD4680BCDC
:102F4C00704780B400AF00BFBD4680BC704780B4F2
:102F5C0000AF00BFBD4680BC704780B500AF00F02D
:102F6C007BF800BF80BD000080B500AF024800F0C8
:102F7C001BFA00BF80BD00BF2804002080B400AF46
:102F8C0000BFBD4680BC704780B400AF00BFBD46DB
:102F9C0080BC704780B500AF4FF4006000F0D6FCE9
:102FAC004FF40061044800F089FC03461A46034BB9
:102FBC001A7000BF80BD00BF000C01406C020020E5
:102FCC0080B400AF00BFBD4680BC704780B500AF79
:102FDC00084B1B68074A43F010031360032000F0F2
:102FEC0047F90F2000F008F8FFF764FF002318469C
:102FFC0080BD00BF0020024080B582B000AF786079
:10300C00124B1A68124B1B7819464FF47A73B3FBA8
:10301C00F1F3B2FBF3F3184600F05FF90346002B13
:10302C0001D001230EE07B680F2B0AD800227968AF
:10303C004FF0FF3000F027F9064A7B68136000233D
:10304C0000E0012318460837BD4680BD3C00002037
:10305C00440000204000002080B400AF054B1B78DA
:10306C001A46054B1B681344034A136000BFBD4648
:10307C0080BC7047440000206C04002080B400AF7A
:10308C00024B1B681846BD4680BC70476C04002080
:10309C0080B584B000AF7860FFF7F0FFB8607B6854
:1030AC00FB60FB68B3F1FF3F05D00A4B1B781A4657
:1030BC00FB681344FB6000BFFFF7E0FF0246BB68F0
:1030CC00D31AFA689A42F7D800BF00BF1037BD4632
:1030DC0080BD00BF4400002080B485B000AF786094
:1030EC007B6803F00703FB600C4BDB68BB60BA68C2
:1030FC004FF6FF031340BB60FB681A02BB68134317
:10310C0043F0BF6343F40033BB60044ABB68D36035
:10311C0000BF1437BD4680BC704700BF00ED00E017
:10312C0080B400AF044BDB681B0A03F0070318469E
:10313C00BD4680BC704700BF00ED00E080B483B09A
:10314C0000AF0346FB7197F90730002B0BDBFB79C3
:10315C0003F01F02064997F907305B09012000FABA
:10316C0002F241F8232000BF0C37BD4680BC7047EB
:10317C0000E100E080B483B000AF03463960FB711E
:10318C0097F90730002B0ADB3B68DAB20C4997F948
:10319C0007301201D2B20B4483F800230AE03B68DB
:1031AC00DAB20849FB7903F00F03043B1201D2B2E7
:1031BC000B441A7600BF0C37BD4680BC704700BF6D
:1031CC0000E100E000ED00E080B489B000AFF860F1
:1031DC00B9607A60FB6803F00703FB61FB69C3F11C
:1031EC000703042B28BF0423BB61FB690433062BA4
:1031FC0002D9FB69033B00E000237B614FF0FF32F7
:10320C00BB6902FA03F3DA43BB681A407B699A4044
:10321C004FF0FF317B6901FA03F3D9437B680B4014
:10322C00134318462437BD4680BC704780B582B026
:10323C0000AF78607B68013BB3F1807F01D3012341
:10324C000FE00A4A7B68013B53600F214FF0FF30BF
:10325C00FFF790FF054B00229A60044B07221A607F
:10326C00002318460837BD4680BD00BF10E000E0C3
:10327C0080B582B000AF78607868FFF72DFF00BF93
:10328C000837BD4680BD80B586B000AF0346B96037
:10329C007A60FB7300237B61FFF742FF78617A68E9
:1032AC00B9687869FFF790FF024697F90F3011461D
:1032BC001846FFF75FFF00BF1837BD4680BD80B5CD
:1032CC0082B000AF0346FB7197F907301846FFF741
:1032DC0035FF00BF0837BD4680BD80B582B000AF5A
:1032EC0078607868FFF7A2FF034618460837BD469A
:1032FC0080BD000080B485B000AF78600023FB6017
:10330C007B68002B01D1012343E07B681B681A46C4
:10331C00224B1344224AA2FB03231B099A007B680D
:10332C001A647B681F4ADA637B68022283F82120C7
:10333C007B681B681B68FB60FB6823F47F5323F0DE
:10334C003003FB607B685A687B689B681A437B6818
:10335C00DB681A437B681B691A437B685B691A43F9
:10336C007B689B691A437B68DB691343FA681343D8
:10337C00FB607B681B68FA681A607B6800229A63A2
:10338C007B68012283F821207B68002283F82020AF
:10339C00002318461437BD4680BC7047F8FFFDBFAC
:1033AC00CDCCCCCC0000024080B584B000AF7860AE
:1033BC007B68DB6B1B68FB607B681B681B68BB60F6
:1033CC007B681B6C04229A40FB681340002B4FD087
:1033DC00BB6803F00403002B4AD07B681B681B6896
:1033EC0003F02003002B07D17B681B681A687B68ED
:1033FC001B6822F004021A607B681B68664A9342C1
:10340C0029D07B681B68654A934222D07B681B6875
:10341C00634A93421AD07B681B68624A934212D06B
:10342C007B681B68604A93420AD07B681B685F4AC2
:10343C00934202D14FF480030EE04FF080630BE017
:10344C004FF4802308E04FF4804305E04FF4806391
:10345C0002E0402300E00423554A53607B68DB6A9A
:10346C00002B00F094807B68DB6A786898478EE0CC
:10347C007B681B6C02229A40FB681340002B56D0D1
:10348C00BB6803F00203002B51D07B681B681B68E0
:10349C0003F02003002B0BD17B681B681A687B6838
:1034AC001B6822F00A021A607B68012283F8212033
:1034BC007B681B68384A934229D07B681B68374A63
:1034CC00934222D07B681B68354A93421AD07B68A2
:1034DC001B68344A934212D07B681B68324A934271
:1034EC000AD07B681B68314A934202D14FF4001317
:1034FC000EE04FF000730BE04FF4003308E04FF494
:10350C00005305E04FF4007302E0202300E0022397
:10351C00274A53607B68002283F820207B689B6AD3
:10352C00002B34D07B689B6A786898472FE07B68C7
:10353C001B6C08229A40FB681340002B28D0BB68F8
:10354C0003F00803002B23D07B681B681A687B6888
:10355C001B6822F00E021A607B681A6C7B68DB6BAE
:10356C00012101FA02F25A607B6801229A637B689E
:10357C00012283F821207B68002283F820207B68BD
:10358C001B6B002B04D07B681B6B7868984700BFC3
:10359C0000BF1037BD4680BD080002401C00024031
:1035AC003000024044000240580002406C000240CF
:1035BC000000024080B48BB000AF7860396000230B
:1035CC007B6200233B6269E101227B6A02FA03F30E
:1035DC00FB613B681B68FA691340BB61BA69FB6904
:1035EC009A4240F058813B685B689A4A93425ED09D
:1035FC00984A934275D8984A934258D0964A934227
:10360C006FD8964A934252D0944A934269D8944ABE
:10361C0093424CD0924A934263D8924A934246D0FA
:10362C00904A93425DD8122B2AD8122B59D801A25A
:10363C0052F823F0BB36000895360008A736000870
:10364C00E9360008EF360008EF360008EF360008C0
:10365C00EF360008EF360008EF360008EF360008AA
:10366C00EF360008EF360008EF360008EF3600089A
:10367C00EF360008EF3600089D360008B13600081A
:10368C00794A934213D02CE03B68DB683B6229E01B
:10369C003B68DB6804333B6224E03B68DB6808333F
:1036AC003B621FE03B68DB680C333B621AE03B6813
:1036BC009B68002B02D104233B6213E03B689B68A0
:1036CC00012B05D108233B627B68FA691A6109E07A
:1036DC0008233B627B68FA695A6103E000233B6272
:1036EC0000E000BFBB69FF2B01D87B6801E07B6861
:1036FC0004337B61BB69FF2B02D87B6A9B0002E021
:10370C007B6A083B9B003B617B691A680F213B6914
:10371C0001FA03F3DB431A40396A3B6901FA03F3FC
:10372C001A437B691A603B685B6803F08053002B7B
:10373C0000F0B1804D4B9B694C4A43F001039361FF
:10374C004A4B9B6903F00103BB60BB68484A7B6A28
:10375C009B08023352F82330FB607B6A03F00303AF
:10376C009B000F2202FA03F3DB43FA681340FB6061
:10377C007B68404A934213D07B683F4A93420DD0FA
:10378C007B683E4A934207D07B683D4A934201D105
:10379C00032306E0042304E0022302E0012300E0FB
:1037AC0000237A6A02F0030292009340FA681343F2
:1037BC00FB602F497B6A9B080233FA6841F823208F
:1037CC003B685B6803F48033002B06D02D4B1A68E2
:1037DC002C49BB6913430B6006E02A4B1A68BB6982
:1037EC00DB43284913400B603B685B6803F40033F0
:1037FC00002B06D0234B5A682249BB6913434B60FC
:10380C0006E0204B5A68BB69DB431E4913404B60F2
:10381C003B685B6803F48013002B06D0194B9A6845
:10382C001849BB6913438B6006E0164B9A68BB6959
:10383C00DB43144913408B603B685B6803F4001353
:10384C00002B21D00F4BDA680E49BB691343CB60B8
:10385C0021E000BF000032100000311000002210E7
:10386C000000211000001210000011100010024086
:10387C000000014000080140000C01400010014014
:10388C0000140140000401400B4BDA68BB69DB43B8
:10389C0009491340CB607B6A01337B623B681A6831
:1038AC007B6A22FA03F3002B7FF48EAE00BF00BFBD
:1038BC002C37BD4680BC70470004014080B485B0F5
:1038CC0000AF78600B467B807B689A687B881340DE
:1038DC00002B02D00123FB7301E00023FB73FB7B65
:1038EC0018461437BD4680BC704780B483B000AF17
:1038FC0078600B467B8013467B707B78002B03D063
:10390C007A887B681A6103E07B881A047B681A61E9
:10391C0000BF0C37BD4680BC704780B485B000AF8B
:10392C0078600B467B807B68DB68FB607A88FB6881
:10393C0013401A04FB68D9437B880B401A437B68FD
:10394C001A6100BF1437BD4680BC704780B582B089
:10395C0000AF0346FB80084B5A69FB881340002BD1
:10396C0006D0054AFB885361FB881846FEF738FDE4
:10397C0000BF0837BD4680BD0004014080B586B04D
:10398C0000AF78607B68002B01D1012372E27B6869
:10399C001B6803F00103002B00F08780924B5B68DF
:1039AC0003F00C03042B0CD08F4B5B6803F00C035F
:1039BC00082B12D18C4B5B6803F48033B3F5803F3A
:1039CC000BD1894B1B6803F40033002B6CD07B6844
:1039DC005B68002B68D101234CE27B685B68B3F514
:1039EC00803F06D1804B1B687F4A43F480331360C1
:1039FC002EE07B685B68002B0CD17B4B1B687A4AF2
:103A0C0023F480331360784B1B68774A23F48023AC
:103A1C0013601DE07B685B68B3F5A02F0CD1724B73
:103A2C001B68714A43F4802313606F4B1B686E4A0A
:103A3C0043F4803313600BE06B4B1B686A4A23F42E
:103A4C0080331360684B1B68674A23F48023136030
:103A5C007B685B68002B13D0FFF710FB386108E024
:103A6C00FFF70CFB02463B69D31A642B01D90323E5
:103A7C0000E25D4B1B6803F40033002BF0D014E024
:103A8C00FFF7FCFA386108E0FFF7F8FA02463B69E9
:103A9C00D31A642B01D90323ECE1534B1B6803F4B9
:103AAC000033002BF0D100E000BF7B681B6803F0F3
:103ABC000203002B63D04C4B5B6803F00C03002B10
:103ACC000BD0494B5B6803F00C03082B1CD1464B05
:103ADC005B6803F48033002B16D1434B1B6803F057
:103AEC000203002B05D07B681B69012B01D001233D
:103AFC00C0E13D4B1B6823F0F8027B685B69DB007F
:103B0C00394913430B603AE07B681B69002B20D0CA
:103B1C00364B01221A60FFF7B1FA386108E0FFF763
:103B2C00ADFA02463B69D31A022B01D90323A1E15A
:103B3C002D4B1B6803F00203002BF0D02A4B1B68A3
:103B4C0023F0F8027B685B69DB00274913430B60A9
:103B5C0015E0264B00221A60FFF790FA386108E056
:103B6C00FFF78CFA02463B69D31A022B01D90323C7
:103B7C0080E11D4B1B6803F00203002BF0D17B6826
:103B8C001B6803F00803002B3AD07B689B69002B61
:103B9C0019D0174B01221A60FFF770FA386108E050
:103BAC00FFF76CFA02463B69D31A022B01D90323A7
:103BBC0060E10D4B5B6A03F00203002BF0D0012097
:103BCC0000F0B0FA1CE00A4B00221A60FFF756FA1C
:103BDC0038610FE0FFF752FA02463B69D31A022B09
:103BEC0008D9032346E100BF001002400000424206
:103BFC0080044242924B5B6A03F00203002BE9D132
:103C0C007B681B6803F00403002B00F0A6800023E4
:103C1C00FB758B4BDB6903F08053002B0DD1884B6C
:103C2C00DB69874A43F08053D361854BDB6903F032
:103C3C008053BB60BB680123FB75824B1B6803F48C
:103C4C008073002B18D17F4B1B687E4A43F4807322
:103C5C001360FFF713FA386108E0FFF70FFA02461A
:103C6C003B69D31A642B01D9032303E1754B1B6801
:103C7C0003F48073002BF0D07B68DB68012B06D13A
:103C8C006F4B1B6A6E4A43F0010313622DE07B6895
:103C9C00DB68002B0CD16A4B1B6A694A23F00103C9
:103CAC001362674B1B6A664A23F0040313621CE021
:103CBC007B68DB68052B0CD1614B1B6A604A43F0B7
:103CCC00040313625E4B1B6A5D4A43F001031362EB
:103CDC000BE05B4B1B6A5A4A23F001031362584BEF
:103CEC001B6A574A23F0040313627B68DB68002BC2
:103CFC0015D0FFF7C3F938610AE0FFF7BFF90246A8
:103D0C003B69D31A41F28832934201D90323B1E0C3
:103D1C004B4B1B6A03F00203002BEED014E0FFF7B1
:103D2C00ADF938610AE0FFF7A9F902463B69D31AED
:103D3C0041F28832934201D903239BE0404B1B6A2A
:103D4C0003F00203002BEED1FB7D012B05D13C4B84
:103D5C00DB693B4A23F08053D3617B68DB69002B22
:103D6C0000F08780364B5B6803F00C03082B61D0A6
:103D7C007B68DB69022B46D1334B00221A60FFF7BC
:103D8C007DF9386108E0FFF779F902463B69D31AEF
:103D9C00022B01D903236DE0294B1B6803F0007340
:103DAC00002BF0D17B681B6AB3F5803F08D1244B04
:103DBC005B6823F400327B689B68214913434B609A
:103DCC001F4B5B6823F474127B68196A7B685B6A0F
:103DDC000B431B4913434B601B4B01221A60FFF72B
:103DEC004DF9386108E0FFF749F902463B69D31AEF
:103DFC00022B01D903233DE0114B1B6803F0007328
:103E0C00002BF0D035E0104B00221A60FFF736F98A
:103E1C00386108E0FFF732F902463B69D31A022BEE
:103E2C0001D9032326E0064B1B6803F00073002B1B
:103E3C00F0D11EE07B68DB69012B07D1012319E06F
:103E4C000010024000700040600042420B4B5B6867
:103E5C00FB60FB6803F480327B681B6A9A4206D1D4
:103E6C00FB6803F470127B685B6A9A4201D00123F1
:103E7C0000E0002318461837BD4680BD00100240F4
:103E8C0080B584B000AF786039607B68002B01D1BD
:103E9C000123D0E06A4B1B6803F007033A689A428F
:103EAC0010D9674B1B6823F0070265493B68134325
:103EBC000B60634B1B6803F007033A689A4201D00E
:103ECC000123B8E07B681B6803F00203002B20D0B1
:103EDC007B681B6803F00403002B05D0594B5B680F
:103EEC00584A43F4E06353607B681B6803F0080393
:103EFC00002B05D0534B5B68524A43F4605353601C
:103F0C00504B5B6823F0F0027B689B684D49134370
:103F1C004B607B681B6803F00103002B40D07B686F
:103F2C005B68012B07D1474B1B6803F40033002B54
:103F3C0015D101237FE07B685B68022B07D1414BD5
:103F4C001B6803F00073002B09D1012373E03D4B78
:103F5C001B6803F00203002B01D101236BE0394BEA
:103F6C005B6823F003027B685B68364913434B6044
:103F7C00FFF784F8F8600AE0FFF780F80246FB6868
:103F8C00D31A41F28832934201D9032353E02D4BCB
:103F9C005B6803F00C027B685B689B009A42EBD178
:103FAC00274B1B6803F007033A689A4210D2244B44
:103FBC001B6823F0070222493B6813430B60204B1C
:103FCC001B6803F007033A689A4201D0012332E0E0
:103FDC007B681B6803F00403002B08D0194B5B684B
:103FEC0023F4E0627B68DB68164913434B607B6803
:103FFC001B6803F00803002B09D0124B5B6823F4F9
:10400C0060527B681B69DB000E4913434B6000F068
:10401C0021F802460B4B5B681B0903F00F030A499E
:10402C00CB5C22FA03F3094A1360094B1B68184650
:10403C00FEF7E2FF002318461037BD4680BD00BFD7
:10404C000020024000100240705B00083C00002081
:10405C004000002090B48AB000AF294B3C1D0FCB20
:10406C0084E80F0040F201233B800023FB61002316
:10407C00BB6100237B6200237B6100233B62214BED
:10408C005B68FB61FB6903F00C03042B02D0082B6B
:10409C0003D02BE01C4B3B622BE0FB699B0C03F029
:1040AC000F0328333B4413F8243C7B61FB6903F476
:1040BC008033002B12D0134B5B685B0C03F00103B5
:1040CC0028333B4413F8283CBB617B690E4A03FB45
:1040DC0002F2BB69B2FBF3F37B6204E07B690B4A2F
:1040EC0002FB03F37B627B6A3B6202E0064B3B62A2
:1040FC0000BF3B6A18462837BD4690BC704700BFCE
:10410C00185B00080010024000127A0000093D0004
:10411C0080B400AF024B1B681846BD4680BC70478C
:10412C003C00002080B485B000AF78600A4B1B685F
:10413C000A4AA2FB03235B0A7A6802FB03F3FB60C7
:10414C0000BFFB685A1EFA60002BF9D100BF00BFFC
:10415C001437BD4680BC70473C000020D34D621024
:10416C0080B582B000AF78607B68002B01D1012351
:10417C0076E07B685B6A002B08D17B685B68B3F5E3
:10418C00827F09D07B680022DA6105E07B6800221F
:10419C001A617B6800225A617B6800229A627B68F4
:1041AC0093F85130DBB2002B06D17B68002283F8E8
:1041BC0050207868FEF7EAFD7B68022283F85120D4
:1041CC007B681B681A687B681B6822F040021A60C7
:1041DC007B685B6803F482727B689B6803F404431E
:1041EC001A437B68DB6803F400631A437B681B6922
:1041FC0003F002031A437B685B6903F001031A4363
:10420C007B689B6903F400731A437B68DB6903F0DA
:10421C0038031A437B681B6A03F0800342EA0301EC
:10422C007B689B6A03F400527B681B680A431A6024
:10423C007B689B691A0C7B681B6802F004025A604D
:10424C007B681B68DA697B681B6822F40062DA61A0
:10425C007B6800225A657B68012283F85120002379
:10426C0018460837BD4680BD80B588B000AFF860F1
:10427C00B9603B601346FB800023FB77FB6893F827
:10428C005030012B01D1022326E1FB68012283F877
:10429C005020FEF7F3FEB861FB88FB82FB6893F8B5
:1042AC005130DBB2012B02D00223FB770BE1BB6850
:1042BC00002B02D0FB88002B02D10123FB7702E1FB
:1042CC00FB68032283F85120FB6800225A65FB68C7
:1042DC00BA681A63FB68FA889A86FB68FA88DA86E9
:1042EC00FB6800229A63FB6800229A87FB68002215
:1042FC00DA87FB6800225A64FB6800221A64FB68A8
:10430C009B68B3F5004F0FD1FB681B681A68FB68FC
:10431C001B6822F040021A60FB681B681A68FB6875
:10432C001B6842F480421A60FB681B681B6803F030
:10433C004003402B07D0FB681B681A68FB681B689E
:10434C0042F040021A60FB68DB68B3F5006F4BD19A
:10435C00FB685B68002B02D0FB8A012B3ED1FB680B
:10436C001B6B1A88FB681B68DA60FB681B6B9A1C5A
:10437C00FB681A63FB68DB8E9BB2013B9AB2FB684D
:10438C00DA862BE0FB681B689B6803F00203022BA8
:10439C0012D1FB681B6B1A88FB681B68DA60FB6820
:1043AC001B6B9A1CFB681A63FB68DB8E9BB2013B90
:1043BC009AB2FB68DA8611E0FEF760FE0246BB6932
:1043CC00D31A3A689A4203D83B68B3F1FF3F02D143
:1043DC003B68002B02D10323FB7774E0FB68DB8E78
:1043EC009BB2002BCED14CE0FB685B68002B02D05B
:1043FC00FB8A012B40D1FB681A6BFB681B680C33E2
:10440C0012781A70FB681B6B5A1CFB681A63FB68EA
:10441C00DB8E9BB2013B9AB2FB68DA862CE0FB6820
:10442C001B689B6803F00203022B13D1FB681A6B09
:10443C00FB681B680C3312781A70FB681B6B5A1CD8
:10444C00FB681A63FB68DB8E9BB2013B9AB2FB687C
:10445C00DA8611E0FEF712FE0246BB69D31A3A68FF
:10446C009A4203D83B68B3F1FF3F02D13B68002B63
:10447C0002D10323FB7726E0FB68DB8E9BB2002B7B
:10448C00CDD1BA693968F86800F0B8FB0346002B47
:10449C0002D0FB6820225A65FB689B68002B0AD16E
:1044AC0000233B61FB681B68DB683B61FB681B6896
:1044BC009B683B613B69FB685B6D002B02D0012361
:1044CC00FB7700E000BFFB68012283F85120FB68FA
:1044DC00002283F85020FB7F18462037BD4680BD54
:1044EC0080B588B002AFF860B9603B601346FB80C2
:1044FC000023FB75FB685B68B3F5827F12D1FB6808
:10450C009B68002B0ED1FB68042283F85120FA889B
:10451C003B6800931346BA68B968F86800F0F1F884
:10452C000346EAE0FB6893F85030012B01D10223DB
:10453C00E3E0FB68012283F85020FEF79FFD386111
:10454C00FB6893F85130DBB2012B02D00223FB75D0
:10455C00CAE0BB68002B02D0FB88002B02D10123E0
:10456C00FB75C1E0FB68042283F85120FB68002234
:10457C005A65FB68BA689A63FB68FA889A87FB6885
:10458C00FA88DA87FB6800221A63FB6800229A8695
:10459C00FB680022DA86FB6800221A64FB680022A2
:1045AC005A64FB689B68B3F5004F0FD1FB681B681E
:1045BC001A68FB681B6822F040021A60FB681B68D3
:1045CC001A68FB681B6822F480421A60FB681B683F
:1045DC001B6803F04003402B07D0FB681B681A686C
:1045EC00FB681B6842F040021A60FB68DB68002B1A
:1045FC0062D12EE0FB681B689B6803F00103012B62
:10460C0015D1FB681B6803F10C02FB689B6B1278DD
:10461C00D2B21A70FB689B6B5A1CFB689A63FB68DE
:10462C00DB8F9BB2013B9AB2FB68DA8711E0FEF795
:10463C0025FD02463B69D31A3A689A4203D83B6877
:10464C00B3F1FF3F02D13B68002B02D10323FB7572
:10465C004AE0FB68DB8F9BB2002BCBD131E0FB68CF
:10466C001B689B6803F00103012B13D1FB681B68CB
:10467C00DA68FB689B6B92B21A80FB689B6B9A1C86
:10468C00FB689A63FB68DB8F9BB2013B9AB2FB68B9
:10469C00DA8711E0FEF7F2FC02463B69D31A3A685E
:1046AC009A4203D83B68B3F1FF3F02D13B68002B21
:1046BC0002D10323FB7517E0FB68DB8F9BB2002B49
:1046CC00CDD13A693968F86800F046FA0346002BF8
:1046DC0002D0FB6820225A65FB685B6D002B02D070
:1046EC000123FB7500E000BFFB68012283F8512019
:1046FC00FB68002283F85020FB7D18461837BD4616
:10470C0080BD80B58CB000AFF860B9607A607B80FA
:10471C000123FB62002387F82B30FB6893F85030A1
:10472C00012B01D102238AE1FB68012283F850207E
:10473C00FEF7A4FC7862FB6893F8513087F82330BD
:10474C00FB685B68FB617B887B8397F82330012BCC
:10475C000FD0FB69B3F5827F07D1FB689B68002BF8
:10476C0003D197F82330042B03D0022387F82B3086
:10477C005BE1BB68002B05D07B68002B02D07B88EB
:10478C00002B03D1012387F82B304EE1FB6893F803
:10479C005130DBB2042B03D0FB68052283F8512087
:1047AC00FB6800225A65FB687A689A63FB687A8812
:1047BC00DA87FB687A889A87FB68BA681A63FB68A1
:1047CC007A88DA86FB687A889A86FB6800221A64F3
:1047DC00FB6800225A64FB681B681B6803F04003EB
:1047EC00402B07D0FB681B681A68FB681B6842F0FB
:1047FC0040021A60FB68DB68B3F5006F78D1FB6888
:10480C005B68002B02D07B8B012B66D1FB681B6B8A
:10481C001A88FB681B68DA60FB681B6B9A1CFB68C8
:10482C001A63FB68DB8E9BB2013B9AB2FB68DA869B
:10483C0053E0FB681B689B6803F00203022B1BD13F
:10484C00FB68DB8E9BB2002B16D0FB6A012B13D1BD
:10485C00FB681B6B1A88FB681B68DA60FB681B6BB8
:10486C009A1CFB681A63FB68DB8E9BB2013B9AB205
:10487C00FB68DA860023FB62FB681B689B6803F00D
:10488C000103012B19D1FB68DB8F9BB2002B14D0D9
:10489C00FB681B68DA68FB689B6B92B21A80FB683A
:1048AC009B6B9A1CFB689A63FB68DB8F9BB2013B8A
:1048BC009AB2FB68DA870123FB62FEF7DFFB024644
:1048CC007B6AD31ABA6B9A4207D8BB6BB3F1FF3F22
:1048DC0003D0032387F82B30A7E0FB68DB8E9BB259
:1048EC00002BA6D1FB68DB8F9BB2002BA1D17CE007
:1048FC00FB685B68002B02D07B8B012B6BD1FB68B8
:10490C001A6BFB681B680C3312781A70FB681B6BF4
:10491C005A1CFB681A63FB68DB8E9BB2013B9AB294
:10492C00FB68DA8657E0FB681B689B6803F00203A0
:10493C00022B1CD1FB68DB8E9BB2002B17D0FB6AC1
:10494C00012B14D1FB681A6BFB681B680C331278B3
:10495C001A70FB681B6B5A1CFB681A63FB68DB8EB6
:10496C009BB2013B9AB2FB68DA860023FB62FB68C0
:10497C001B689B6803F00103012B19D1FB68DB8FCB
:10498C009BB2002B14D0FB681B68DA68FB689B6B2E
:10499C00D2B21A70FB689B6B5A1CFB689A63FB685B
:1049AC00DB8F9BB2013B9AB2FB68DA870123FB6277
:1049BC00FEF764FB02467B6AD31ABA6B9A4203D8A1
:1049CC00BB6BB3F1FF3F02D1BB6B002B03D10323B5
:1049DC0087F82B3029E0FB68DB8E9BB2002BA2D131
:1049EC00FB68DB8F9BB2002B9DD17A6AB96BF868A0
:1049FC0000F004F90346002B06D0012387F82B3076
:104A0C00FB6820225A6510E0FB689B68002B0BD1D9
:104A1C0000237B61FB681B68DB687B61FB681B68A0
:104A2C009B687B617B6900E000BFFB68012283F817
:104A3C005120FB68002283F8502097F82B30184641
:104A4C003037BD4680BD000080B588B000AFF8603F
:104A5C00B9603B601346FB71FEF710FB0246BB6A64
:104A6C009B1A3A681344FB61FEF708FBB861394B9B
:104A7C001B685B011B0DFA6902FB03F37B6154E0BD
:104A8C003B68B3F1FF3F50D0FEF7F8FA0246BB6922
:104A9C00D31AFA699A4202D9FB69002B3DD1FB6803
:104AAC001B685A68FB681B6822F0E0025A60FB68BE
:104ABC005B68B3F5827F11D1FB689B68B3F5004F3F
:104ACC0004D0FB689B68B3F5806F07D1FB681B684B
:104ADC001A68FB681B6822F040021A60FB689B6A2C
:104AEC00B3F5005F0FD1FB681B681A68FB681B6885
:104AFC0022F400521A60FB681B681A68FB681B687A
:104B0C0042F400521A60FB68012283F85120FB68C2
:104B1C00002283F85020032317E07B69002B01D17E
:104B2C000023FB617B69013B7B61FB681B689A6816
:104B3C00BB681340BA689A420CBF01230023DBB256
:104B4C001A46FB799A429BD1002318462037BD4662
:104B5C0080BD00BF3C00002080B586B002AFF8607D
:104B6C00B9607A60FB685B68B3F5827F11D1FB6832
:104B7C009B68B3F5004F04D0FB689B68B3F5806F5E
:104B8C0007D1FB681B681A68FB681B6822F040029F
:104B9C001A60FB685B68B3F5827F17D1FB689B6872
:104BAC00B3F5806F12D17B680093BB6800220121A2
:104BBC00F868FFF749FF0346002B1AD0FB685B6DC2
:104BCC0043F02002FB685A65032313E07B680093D3
:104BDC00BB6800228021F868FFF736FF0346002BE4
:104BEC0007D0FB685B6D43F02002FB685A6503231A
:104BFC0000E0002318461037BD4680BD80B586B056
:104C0C0002AFF860B9607A607B680093BB680022E1
:104C1C008021F868FFF718FF0346002B07D0FB68CC
:104C2C005B6D43F02002FB685A65032300E0002310
:104C3C0018461037BD4680BD80B582B000AF786095
:104C4C007B68002B01D1012341E07B6893F83D3058
:104C5C00DBB2002B06D17B68002283F83C207868FD
:104C6C0000F039F87B68022283F83D207B681A68D3
:104C7C007B6804331946104600F0C0FB7B680122A8
:104C8C0083F846207B68012283F83E207B68012252
:104C9C0083F83F207B68012283F840207B68012247
:104CAC0083F841207B68012283F842207B68012233
:104CBC0083F843207B68012283F844207B6801221F
:104CCC0083F845207B68012283F83D200023184699
:104CDC000837BD4680BD80B483B000AF786000BF9C
:104CEC000C37BD4680BC704780B584B000AF78608F
:104CFC0039603B68002B04D17B6893F83E30DBB203
:104D0C0013E03B68042B04D17B6893F83F30DBB293
:104D1C000BE03B68082B04D17B6893F84030DBB286
:104D2C0003E07B6893F84130DBB2FB733B68002BEC
:104D3C0004D17B6893F84230DBB213E03B68042B60
:104D4C0004D17B6893F84330DBB20BE03B68082B53
:104D5C0004D17B6893F84430DBB203E07B6893F8B2
:104D6C004530DBB2BB73FB7B012B02D1BB7B012B30
:104D7C0001D00123B3E03B68002B04D17B680222F5
:104D8C0083F83E2013E03B68042B04D17B6802229D
:104D9C0083F83F200BE03B68082B04D17B68022290
:104DAC0083F8402003E07B68022283F841203B68B3
:104DBC00002B04D17B68022283F8422013E03B686D
:104DCC00042B04D17B68022283F843200BE03B6860
:104DDC00082B04D17B68022283F8442003E07B6813
:104DEC00022283F845203B680C2B41D801A252F8D3
:104DFC0023F000BF354E00087D4E00087D4E0008A4
:104E0C007D4E0008474E00087D4E00087D4E000880
:104E1C007D4E0008594E00087D4E00087D4E00085E
:104E2C007D4E00086B4E00087B681B68DA687B6857
:104E3C001B6842F00202DA601BE07B681B68DA68D0
:104E4C007B681B6842F00402DA6012E07B681B6826
:104E5C00DA687B681B6842F00802DA6009E07B685C
:104E6C001B68DA687B681B6842F01002DA6000E0AD
:104E7C0000BF7B681B6801223968184600F0C3FC30
:104E8C007B681B68184A93420ED07B681B68B3F191
:104E9C00804F09D07B681B68144A934204D07B680E
:104EAC001B68134A934211D17B681B689B6803F003
:104EBC000703BB60BB68062B10D07B681B681A68A5
:104ECC007B681B6842F001021A6007E07B681B6874
:104EDC001A687B681B6842F001021A6000231846AE
:104EEC001037BD4680BD00BF002C014000040040BF
:104EFC000008004080B582B000AF78607B681B680A
:104F0C001B6903F00203022B22D17B681B68DB6850
:104F1C0003F00203022B1BD17B681B686FF00202AB
:104F2C001A617B6801221A777B681B689B6903F006
:104F3C000303002B03D07868FDF774FA05E078685A
:104F4C0000F041FA786800F047FA7B6800221A7783
:104F5C007B681B681B6903F00403042B22D17B685C
:104F6C001B68DB6803F00403042B1BD17B681B68F4
:104F7C006FF004021A617B6802221A777B681B6847
:104F8C009B6903F44073002B03D07868FDF74AFA51
:104F9C0005E0786800F017FA786800F01DFA7B6875
:104FAC0000221A777B681B681B6903F00803082B27
:104FBC0022D17B681B68DB6803F00803082B1BD12C
:104FCC007B681B686FF008021A617B6804221A77F1
:104FDC007B681B68DB6903F00303002B03D0786844
:104FEC00FDF720FA05E0786800F0EDF9786800F03C
:104FFC00F3F97B6800221A777B681B681B6903F046
:10500C001003102B22D17B681B68DB6803F01003A4
:10501C00102B1BD17B681B686FF010021A617B6828
:10502C0008221A777B681B68DB6903F44073002B3A
:10503C0003D07868FDF7F6F905E0786800F0C3F95D
:10504C00786800F0C9F97B6800221A777B681B68C6
:10505C001B6903F00103012B0ED17B681B68DB6815
:10506C0003F00103012B07D17B681B686FF0010271
:10507C001A61786800F09EF97B681B681B6903F065
:10508C008003802B0ED17B681B68DB6803F08003E8
:10509C00802B07D17B681B686FF080021A617868DF
:1050AC0000F03DFC7B681B681B6903F04003402B40
:1050BC000ED17B681B68DB6803F04003402B07D1E3
:1050CC007B681B686FF040021A61786800F08DF9FC
:1050DC007B681B681B6903F02003202B0ED17B68B7
:1050EC001B68DB6803F02003202B07D17B681B684F
:1050FC006FF020021A61786800F008FC00BF0837D6
:10510C00BD4680BD80B584B000AFF860B9607A60F0
:10511C00FB6893F83C30012B01D1022382E0FB6841
:10512C00012283F83C207B68002B1BD1FB6818689C
:10513C00BB681968BB685A68BB68DB6800F0C0F9CB
:10514C00FB681B689A69FB681B6822F00C029A6169
:10515C00FB681B689969BB689A68FB681B680A4303
:10516C009A615AE07B68042B1CD1FB681868BB68F9
:10517C001968BB685A68BB68DB6800F029FAFB68E1
:10518C001B689A69FB681B6822F440629A61FB6891
:10519C001B689969BB689B681A02FB681B680A4309
:1051AC009A613AE07B68082B1BD1FB681868BB68D6
:1051BC001968BB685A68BB68DB6800F074FAFB6856
:1051CC001B68DA69FB681B6822F00C02DA61FB6869
:1051DC001B68D969BB689A68FB681B680A43DA616B
:1051EC001BE0FB681868BB681968BB685A68BB6829
:1051FC00DB6800F093FAFB681B68DA69FB681B68D4
:10520C0022F44062DA61FB681B68D969BB689B6851
:10521C001A02FB681B680A43DA61FB68002283F8F8
:10522C003C20002318461037BD4680BD80B584B0A5
:10523C0000AF786039607B6893F83C30012B01D16A
:10524C000223B3E07B68012283F83C207B680222B6
:10525C0083F83D207B681B689B68FB60FB6823F030
:10526C007703FB60FB6823F47F43FB607B681B6860
:10527C00FA689A603B681B68B3F5005F3ED0B3F5E3
:10528C00005F00F28780B3F5805F00F08580B3F596
:10529C00805F7FD8702B1AD0702B7BD8602B50D0AE
:1052AC00602B77D8502B3CD0502B73D8402B58D038
:1052BC00402B6FD8302B64D0302B6BD8202B60D088
:1052CC00202B67D8002B5CD0102B5AD062E07B6867
:1052DC0018683B6899683B685A683B68DB6800F063
:1052EC0073FA7B681B689B68FB60FB6843F0770371
:1052FC00FB607B681B68FA689A604EE07B681868F4
:10530C003B6899683B685A683B68DB6800F05CFA5C
:10531C007B681B689A687B681B6842F480429A60C1
:10532C003BE07B6818683B6859683B68DB681A4649
:10533C0000F020F97B681B685021184600F02AFA0F
:10534C002BE07B6818683B6859683B68DB681A4639
:10535C0000F07AF97B681B686021184600F01AFA95
:10536C001BE07B6818683B6859683B68DB681A4629
:10537C0000F000F97B681B684021184600F00AFA1F
:10538C000BE07B681A683B681B681946104600F0F6
:10539C0001FA02E000BF00E000BF7B68012283F845
:1053AC003D207B68002283F83C20002318461037F0
:1053BC00BD4680BD80B483B000AF786000BF0C37B1
:1053CC00BD4680BC704780B483B000AF786000BF2E
:1053DC000C37BD4680BC704780B483B000AF78609A
:1053EC0000BF0C37BD4680BC704780B483B000AFA3
:1053FC00786000BF0C37BD4680BC704780B485B068
:10540C0000AF786039607B681B68FB607B68294A59
:10541C0093420BD07B68B3F1804F07D07B68264A50
:10542C00934203D07B68254A934208D1FB6823F052
:10543C007003FB603B685B68FA681343FB607B6836
:10544C001C4A93420BD07B68B3F1804F07D07B682A
:10545C00194A934203D07B68184A934208D1FB68DF
:10546C0023F44073FB603B68DB68FA681343FB6012
:10547C00FB6823F080023B685B691343FB607B682D
:10548C00FA681A603B689A687B68DA623B681A684B
:10549C007B689A627B68074A934203D13B681A691E
:1054AC007B681A637B6801225A6100BF1437BD46C2
:1054BC0080BC7047002C01400004004000080040F4
:1054CC0080B487B000AFF860B9607A603B60FB686D
:1054DC001B6A23F00102FB681A62FB689B697B6103
:1054EC00FB681B6A3B61FB681F4A93420BD0FB684D
:1054FC00B3F1804F07D0FB681C4A934203D0FB6882
:10550C001B4A934201D1012300E00023002B08D059
:10551C007B6923F003037B617A697B6813437B61AE
:10552C0003E07B6943F001037B617B6923F0F003AB
:10553C007B613B681B01DBB27A6913437B613B697E
:10554C0023F00A033B61BB6803F00A033A69134377
:10555C003B61FB687A699A61FB683A691A6200BF21
:10556C001C37BD4680BC7047002C01400004004035
:10557C000008004080B487B000AFF860B9607A6072
:10558C00FB681B6A7B61FB681B6A23F00102FB68EA
:10559C001A62FB689B693B613B6923F0F0033B613A
:1055AC007B681B013A6913433B617B6923F00A0357
:1055BC007B617A69BB6813437B61FB683A699A61CA
:1055CC00FB687A691A6200BF1C37BD4680BC704705
:1055DC0080B487B000AFF860B9607A603B60FB685C
:1055EC001B6A23F01002FB681A62FB689B697B61E3
:1055FC00FB681B6A3B617B6923F440737B617B68AE
:10560C001B027A6913437B617B6923F470437B61D2
:10561C003B681B039BB27A6913437B613B6923F0A4
:10562C00A0033B61BB681B0103F0A0033A69134361
:10563C003B61FB687A699A61FB683A691A6200BF40
:10564C001C37BD4680BC704780B487B000AFF86093
:10565C00B9607A60FB681B6A23F01002FB681A625F
:10566C00FB689B697B61FB681B6A3B617B6923F46C
:10567C0070437B617B681B037A6913437B613B69D5
:10568C0023F0A0033B61BB681B013A6913433B61E8
:10569C00FB687A699A61FB683A691A6200BF1C3729
:1056AC00BD4680BC704780B487B000AFF860B9606D
:1056BC007A603B60FB681B6A23F48072FB681A6299
:1056CC00FB68DB697B61FB681B6A3B617B6923F0D0
:1056DC0003037B617A697B6813437B617B6923F0ED
:1056EC00F0037B613B681B01DBB27A6913437B617E
:1056FC003B6923F400733B61BB681B0203F400732A
:10570C003A6913433B61FB687A69DA61FB683A6971
:10571C001A6200BF1C37BD4680BC704780B487B08E
:10572C0000AFF860B9607A603B60FB681B6A23F4D9
:10573C008052FB681A62FB68DB697B61FB681B6A41
:10574C003B617B6923F440737B617B681B027A6944
:10575C0013437B617B6923F470437B613B681B03C0
:10576C009BB27A6913437B613B6923F400533B6121
:10577C00BB681B0303F400533A6913433B61FB689A
:10578C007A69DA61FB683A691A6200BF1C37BD4658
:10579C0080BC704780B485B000AF786039607B689E
:1057AC009B68FB60FB6823F07003FB603A68FB6846
:1057BC00134343F00703FB607B68FA689A6000BFF1
:1057CC001437BD4680BC704780B487B000AFF8601A
:1057DC00B9607A603B60FB689B687B617B6923F4F2
:1057EC007F437B613B681A027B681A43BB68134397
:1057FC007A6913437B61FB687A699A6000BF1C3736
:10580C00BD4680BC704780B487B000AFF860B9600B
:10581C007A60BB6803F01F03012202FA03F37B6179
:10582C00FB681A6A7B69DB431A40FB681A62FB68E7
:10583C001A6ABB6803F01F03796801FA03F31A4371
:10584C00FB681A6200BF1C37BD4680BC7047000065
:10585C0080B485B000AF786039607B6893F83C30D9
:10586C00012B01D1022346E07B68012283F83C2006
:10587C007B68022283F83D207B681B685B68FB60B9
:10588C007B681B689B68BB60FB6823F07003FB6044
:10589C003B681B68FA681343FB607B681B68FA68FB
:1058AC005A607B681B68164A93420ED07B681B6853
:1058BC00B3F1804F09D07B681B68124A934204D025
:1058CC007B681B68104A93420CD1BB6823F08003A1
:1058DC00BB603B685B68BA681343BB607B681B6842
:1058EC00BA689A607B68012283F83D207B680022AD
:1058FC0083F83C20002318461437BD4680BC704703
:10590C00002C0140000400400008004080B483B02B
:10591C0000AF786000BF0C37BD4680BC704780B4C8
:10592C0083B000AF786000BF0C37BD4680BC7047B9
:10593C000C480D490D4A002302E0D458C4500433DE
:10594C00C4188C42F9D30A4A0A4C002301E01360B4
:10595C000432A242FBD3FDF733FB00F017F8FDF73E
:10596C00CDF870470000002048000020885B00083C
:10597C004800002070040020FEE7034602449342D6
:10598C0000D1704703F8011BF9E7000070B5002641
:10599C000C4D0D4C641BA410A64209D100F01AF852
:1059AC0000260A4D0A4C641BA410A64205D170BDFA
:1059BC0055F8043B98470136EEE755F8043B9847F9
:1059CC000136F2E7805B0008805B0008805B000812
:1059DC00845B0008F8B500BFF8BC08BC9E46704755
:0C59EC00F8B500BFF8BC08BC9E46704730
:1059F800534D504C0000000052454D005352510089
:105A0800414452530000000041432B44430000002E
:105A180034576F686D000000415A4F464600000039
:105A28004D524E47000000004D4154480000000010
:105A38005245415200000000455252005348494621
:105A480054000000F8590008005A0008045A0008D9
:105A5800085A0008105A0008185A0008205A000866
:105A6800285A0008305A0008385A0008405A0008D6
:105A7800445A00080A00000057000000A500000072
:105A8800F20000003F0100008D010000DA01000073
:105A98002702000075020000C20200000F03000088
:105AA8005C03000020564443000000004D56444368
:105AB800000000004B4F484D00000000204F484DAB
:105AC800000000004D4F484D00000000474F484D72
